{
  "_format": "hh-sol-artifact-1",
  "contractName": "GameToken",
  "sourceName": "contracts/GameToken.sol",
  "abi": [
    {
      "inputs": [],
      "stateMutability": "nonpayable",
      "type": "constructor"
    },
    {
      "inputs": [
        {
          "internalType": "address",
          "name": "spender",
          "type": "address"
        },
        {
          "internalType": "uint256",
          "name": "allowance",
          "type": "uint256"
        },
        {
          "internalType": "uint256",
          "name": "needed",
          "type": "uint256"
        }
      ],
      "name": "ERC20InsufficientAllowance",
      "type": "error"
    },
    {
      "inputs": [
        {
          "internalType": "address",
          "name": "sender",
          "type": "address"
        },
        {
          "internalType": "uint256",
          "name": "balance",
          "type": "uint256"
        },
        {
          "internalType": "uint256",
          "name": "needed",
          "type": "uint256"
        }
      ],
      "name": "ERC20InsufficientBalance",
      "type": "error"
    },
    {
      "inputs": [
        {
          "internalType": "address",
          "name": "approver",
          "type": "address"
        }
      ],
      "name": "ERC20InvalidApprover",
      "type": "error"
    },
    {
      "inputs": [
        {
          "internalType": "address",
          "name": "receiver",
          "type": "address"
        }
      ],
      "name": "ERC20InvalidReceiver",
      "type": "error"
    },
    {
      "inputs": [
        {
          "internalType": "address",
          "name": "sender",
          "type": "address"
        }
      ],
      "name": "ERC20InvalidSender",
      "type": "error"
    },
    {
      "inputs": [
        {
          "internalType": "address",
          "name": "spender",
          "type": "address"
        }
      ],
      "name": "ERC20InvalidSpender",
      "type": "error"
    },
    {
      "inputs": [
        {
          "internalType": "address",
          "name": "owner",
          "type": "address"
        }
      ],
      "name": "OwnableInvalidOwner",
      "type": "error"
    },
    {
      "inputs": [
        {
          "internalType": "address",
          "name": "account",
          "type": "address"
        }
      ],
      "name": "OwnableUnauthorizedAccount",
      "type": "error"
    },
    {
      "anonymous": false,
      "inputs": [
        {
          "indexed": true,
          "internalType": "address",
          "name": "owner",
          "type": "address"
        },
        {
          "indexed": true,
          "internalType": "address",
          "name": "spender",
          "type": "address"
        },
        {
          "indexed": false,
          "internalType": "uint256",
          "name": "value",
          "type": "uint256"
        }
      ],
      "name": "Approval",
      "type": "event"
    },
    {
      "anonymous": false,
      "inputs": [
        {
          "indexed": true,
          "internalType": "address",
          "name": "player",
          "type": "address"
        },
        {
          "indexed": false,
          "internalType": "string",
          "name": "itemName",
          "type": "string"
        }
      ],
      "name": "ItemRedeemed",
      "type": "event"
    },
    {
      "anonymous": false,
      "inputs": [
        {
          "indexed": true,
          "internalType": "address",
          "name": "previousOwner",
          "type": "address"
        },
        {
          "indexed": true,
          "internalType": "address",
          "name": "newOwner",
          "type": "address"
        }
      ],
      "name": "OwnershipTransferred",
      "type": "event"
    },
    {
      "anonymous": false,
      "inputs": [
        {
          "indexed": true,
          "internalType": "address",
          "name": "from",
          "type": "address"
        },
        {
          "indexed": true,
          "internalType": "address",
          "name": "to",
          "type": "address"
        },
        {
          "indexed": false,
          "internalType": "uint256",
          "name": "value",
          "type": "uint256"
        }
      ],
      "name": "Transfer",
      "type": "event"
    },
    {
      "inputs": [
        {
          "internalType": "address",
          "name": "owner",
          "type": "address"
        },
        {
          "internalType": "address",
          "name": "spender",
          "type": "address"
        }
      ],
      "name": "allowance",
      "outputs": [
        {
          "internalType": "uint256",
          "name": "",
          "type": "uint256"
        }
      ],
      "stateMutability": "view",
      "type": "function"
    },
    {
      "inputs": [
        {
          "internalType": "address",
          "name": "spender",
          "type": "address"
        },
        {
          "internalType": "uint256",
          "name": "value",
          "type": "uint256"
        }
      ],
      "name": "approve",
      "outputs": [
        {
          "internalType": "bool",
          "name": "",
          "type": "bool"
        }
      ],
      "stateMutability": "nonpayable",
      "type": "function"
    },
    {
      "inputs": [
        {
          "internalType": "address",
          "name": "account",
          "type": "address"
        }
      ],
      "name": "balanceOf",
      "outputs": [
        {
          "internalType": "uint256",
          "name": "",
          "type": "uint256"
        }
      ],
      "stateMutability": "view",
      "type": "function"
    },
    {
      "inputs": [
        {
          "internalType": "uint256",
          "name": "value",
          "type": "uint256"
        }
      ],
      "name": "burn",
      "outputs": [],
      "stateMutability": "nonpayable",
      "type": "function"
    },
    {
      "inputs": [
        {
          "internalType": "address",
          "name": "account",
          "type": "address"
        },
        {
          "internalType": "uint256",
          "name": "value",
          "type": "uint256"
        }
      ],
      "name": "burnFrom",
      "outputs": [],
      "stateMutability": "nonpayable",
      "type": "function"
    },
    {
      "inputs": [
        {
          "internalType": "uint256",
          "name": "amount",
          "type": "uint256"
        }
      ],
      "name": "burnTokens",
      "outputs": [],
      "stateMutability": "nonpayable",
      "type": "function"
    },
    {
      "inputs": [],
      "name": "decimals",
      "outputs": [
        {
          "internalType": "uint8",
          "name": "",
          "type": "uint8"
        }
      ],
      "stateMutability": "view",
      "type": "function"
    },
    {
      "inputs": [],
      "name": "getBalance",
      "outputs": [
        {
          "internalType": "uint256",
          "name": "",
          "type": "uint256"
        }
      ],
      "stateMutability": "view",
      "type": "function"
    },
    {
      "inputs": [],
      "name": "getGameStore",
      "outputs": [
        {
          "internalType": "string",
          "name": "",
          "type": "string"
        }
      ],
      "stateMutability": "pure",
      "type": "function"
    },
    {
      "inputs": [],
      "name": "getRedeemedItems",
      "outputs": [
        {
          "internalType": "string[]",
          "name": "",
          "type": "string[]"
        }
      ],
      "stateMutability": "view",
      "type": "function"
    },
    {
      "inputs": [
        {
          "internalType": "address",
          "name": "to",
          "type": "address"
        },
        {
          "internalType": "uint256",
          "name": "amount",
          "type": "uint256"
        }
      ],
      "name": "mint",
      "outputs": [],
      "stateMutability": "nonpayable",
      "type": "function"
    },
    {
      "inputs": [],
      "name": "name",
      "outputs": [
        {
          "internalType": "string",
          "name": "",
          "type": "string"
        }
      ],
      "stateMutability": "view",
      "type": "function"
    },
    {
      "inputs": [],
      "name": "owner",
      "outputs": [
        {
          "internalType": "address",
          "name": "",
          "type": "address"
        }
      ],
      "stateMutability": "view",
      "type": "function"
    },
    {
      "inputs": [
        {
          "internalType": "uint256",
          "name": "amount",
          "type": "uint256"
        }
      ],
      "name": "redeemItem",
      "outputs": [],
      "stateMutability": "nonpayable",
      "type": "function"
    },
    {
      "inputs": [],
      "name": "renounceOwnership",
      "outputs": [],
      "stateMutability": "nonpayable",
      "type": "function"
    },
    {
      "inputs": [],
      "name": "symbol",
      "outputs": [
        {
          "internalType": "string",
          "name": "",
          "type": "string"
        }
      ],
      "stateMutability": "view",
      "type": "function"
    },
    {
      "inputs": [],
      "name": "totalSupply",
      "outputs": [
        {
          "internalType": "uint256",
          "name": "",
          "type": "uint256"
        }
      ],
      "stateMutability": "view",
      "type": "function"
    },
    {
      "inputs": [
        {
          "internalType": "address",
          "name": "to",
          "type": "address"
        },
        {
          "internalType": "uint256",
          "name": "value",
          "type": "uint256"
        }
      ],
      "name": "transfer",
      "outputs": [
        {
          "internalType": "bool",
          "name": "",
          "type": "bool"
        }
      ],
      "stateMutability": "nonpayable",
      "type": "function"
    },
    {
      "inputs": [
        {
          "internalType": "address",
          "name": "from",
          "type": "address"
        },
        {
          "internalType": "address",
          "name": "to",
          "type": "address"
        },
        {
          "internalType": "uint256",
          "name": "value",
          "type": "uint256"
        }
      ],
      "name": "transferFrom",
      "outputs": [
        {
          "internalType": "bool",
          "name": "",
          "type": "bool"
        }
      ],
      "stateMutability": "nonpayable",
      "type": "function"
    },
    {
      "inputs": [
        {
          "internalType": "address",
          "name": "newOwner",
          "type": "address"
        }
      ],
      "name": "transferOwnership",
      "outputs": [],
      "stateMutability": "nonpayable",
      "type": "function"
    },
    {
      "inputs": [
        {
          "internalType": "address",
          "name": "_to",
          "type": "address"
        },
        {
          "internalType": "uint256",
          "name": "amount",
          "type": "uint256"
        }
      ],
      "name": "transferTokens",
      "outputs": [],
      "stateMutability": "nonpayable",
      "type": "function"
    }
  ],
  "bytecode": "0x60806040523480156200001157600080fd5b50336040518060400160405280600981526020017f47616d65546f6b656e00000000000000000000000000000000000000000000008152506040518060400160405280600381526020017f47544e00000000000000000000000000000000000000000000000000000000008152508160039081620000909190620006db565b508060049081620000a29190620006db565b505050600073ffffffffffffffffffffffffffffffffffffffff168173ffffffffffffffffffffffffffffffffffffffff16036200011a5760006040517f1e4fbdf700000000000000000000000000000000000000000000000000000000815260040162000111919062000807565b60405180910390fd5b6200012b816200039b60201b60201c565b50600760405180604001604052806040518060400160405280600e81526020017f53776f7264206f6620506f776572000000000000000000000000000000000000815250815260200161012c81525090806001815401808255809150506001900390600052602060002090600202016000909190919091506000820151816000019081620001ba9190620006db565b50602082015181600101555050600760405180604001604052806040518060400160405280600f81526020017f536869656c64206f662056616c6f720000000000000000000000000000000000815250815260200160c881525090806001815401808255809150506001900390600052602060002090600202016000909190919091506000820151816000019081620002549190620006db565b50602082015181600101555050600760405180604001604052806040518060400160405280601081526020017f48656c6d6574206f6620576973646f6d000000000000000000000000000000008152508152602001609681525090806001815401808255809150506001900390600052602060002090600202016000909190919091506000820151816000019081620002ee9190620006db565b50602082015181600101555050600760405180604001604052806040518060400160405280601181526020017f506f74696f6e206f66204865616c696e670000000000000000000000000000008152508152602001604b81525090806001815401808255809150506001900390600052602060002090600202016000909190919091506000820151816000019081620003889190620006db565b5060208201518160010155505062000824565b6000600560009054906101000a900473ffffffffffffffffffffffffffffffffffffffff16905081600560006101000a81548173ffffffffffffffffffffffffffffffffffffffff021916908373ffffffffffffffffffffffffffffffffffffffff1602179055508173ffffffffffffffffffffffffffffffffffffffff168173ffffffffffffffffffffffffffffffffffffffff167f8be0079c531659141344cd1fd0a4f28419497f9722a3daafe3b4186f6b6457e060405160405180910390a35050565b600081519050919050565b7f4e487b7100000000000000000000000000000000000000000000000000000000600052604160045260246000fd5b7f4e487b7100000000000000000000000000000000000000000000000000000000600052602260045260246000fd5b60006002820490506001821680620004e357607f821691505b602082108103620004f957620004f86200049b565b5b50919050565b60008190508160005260206000209050919050565b60006020601f8301049050919050565b600082821b905092915050565b600060088302620005637fffffffffffffffffffffffffffffffffffffffffffffffffffffffffffffffff8262000524565b6200056f868362000524565b95508019841693508086168417925050509392505050565b6000819050919050565b6000819050919050565b6000620005bc620005b6620005b08462000587565b62000591565b62000587565b9050919050565b6000819050919050565b620005d8836200059b565b620005f0620005e782620005c3565b84845462000531565b825550505050565b600090565b62000607620005f8565b62000614818484620005cd565b505050565b5b818110156200063c5762000630600082620005fd565b6001810190506200061a565b5050565b601f8211156200068b576200065581620004ff565b620006608462000514565b8101602085101562000670578190505b620006886200067f8562000514565b83018262000619565b50505b505050565b600082821c905092915050565b6000620006b06000198460080262000690565b1980831691505092915050565b6000620006cb83836200069d565b9150826002028217905092915050565b620006e68262000461565b67ffffffffffffffff8111156200070257620007016200046c565b5b6200070e8254620004ca565b6200071b82828562000640565b600060209050601f8311600181146200075357600084156200073e578287015190505b6200074a8582620006bd565b865550620007ba565b601f1984166200076386620004ff565b60005b828110156200078d5784890151825560018201915060208501945060208101905062000766565b86831015620007ad5784890151620007a9601f8916826200069d565b8355505b6001600288020188555050505b505050505050565b600073ffffffffffffffffffffffffffffffffffffffff82169050919050565b6000620007ef82620007c2565b9050919050565b6200080181620007e2565b82525050565b60006020820190506200081e6000830184620007f6565b92915050565b611f2780620008346000396000f3fe608060405234801561001057600080fd5b50600436106101375760003560e01c80634cb4a2df116100b85780638da5cb5b1161007c5780638da5cb5b1461031657806395d89b4114610334578063a9059cbb14610352578063bec3fa1714610382578063dd62ed3e1461039e578063f2fde38b146103ce57610137565b80634cb4a2df146102865780636d1b229d146102a457806370a08231146102c0578063715018a6146102f057806379cc6790146102fa57610137565b806323b872dd116100ff57806323b872dd146101e2578063313ce567146102125780633823d1051461023057806340c10f191461024e57806342966c681461026a57610137565b806306fdde031461013c578063095ea7b31461015a57806312065fe01461018a57806318160ddd146101a85780631c26dc23146101c6575b600080fd5b6101446103ea565b604051610151919061142b565b60405180910390f35b610174600480360381019061016f91906114e6565b61047c565b6040516101819190611541565b60405180910390f35b61019261049f565b60405161019f919061156b565b60405180910390f35b6101b06104af565b6040516101bd919061156b565b60405180910390f35b6101e060048036038101906101db9190611586565b6104b9565b005b6101fc60048036038101906101f791906115b3565b6106ee565b6040516102099190611541565b60405180910390f35b61021a61071d565b6040516102279190611622565b60405180910390f35b610238610726565b6040516102459190611749565b60405180910390f35b610268600480360381019061026391906114e6565b61083c565b005b610284600480360381019061027f9190611586565b610852565b005b61028e610866565b60405161029b919061142b565b60405180910390f35b6102be60048036038101906102b99190611586565b610886565b005b6102da60048036038101906102d5919061176b565b6108de565b6040516102e7919061156b565b60405180910390f35b6102f8610926565b005b610314600480360381019061030f91906114e6565b61093a565b005b61031e61095a565b60405161032b91906117a7565b60405180910390f35b61033c610984565b604051610349919061142b565b60405180910390f35b61036c600480360381019061036791906114e6565b610a16565b6040516103799190611541565b60405180910390f35b61039c600480360381019061039791906114e6565b610a39565b005b6103b860048036038101906103b391906117c2565b610a9f565b6040516103c5919061156b565b60405180910390f35b6103e860048036038101906103e3919061176b565b610b26565b005b6060600380546103f990611831565b80601f016020809104026020016040519081016040528092919081815260200182805461042590611831565b80156104725780601f1061044757610100808354040283529160200191610472565b820191906000526020600020905b81548152906001019060200180831161045557829003601f168201915b5050505050905090565b600080610487610bac565b9050610494818585610bb4565b600191505092915050565b60006104aa336108de565b905090565b6000600254905090565b604b8110156104fd576040517f08c379a00000000000000000000000000000000000000000000000000000000081526004016104f4906118ae565b60405180910390fd5b80610507336108de565b1015610548576040517f08c379a000000000000000000000000000000000000000000000000000000000815260040161053f9061191a565b60405180910390fd5b6105523382610bc6565b60005b6007805490508110156106af57600781815481106105765761057561193a565b5b906000526020600020906002020160010154821061069c57600660003373ffffffffffffffffffffffffffffffffffffffff1673ffffffffffffffffffffffffffffffffffffffff168152602001908152602001600020600782815481106105e1576105e061193a565b5b90600052602060002090600202016000019080600181540180825580915050600190039060005260206000200160009091909190915090816106239190611b6f565b503373ffffffffffffffffffffffffffffffffffffffff167f05e1c33a66a413f8f509a81827dac6f951c66606add81dce241a77a8c81c16ed600783815481106106705761066f61193a565b5b906000526020600020906002020160000160405161068e9190611cdb565b60405180910390a2506106eb565b80806106a790611d2c565b915050610555565b506040517f08c379a00000000000000000000000000000000000000000000000000000000081526004016106e290611de6565b60405180910390fd5b50565b6000806106f9610bac565b9050610706858285610c48565b610711858585610cdc565b60019150509392505050565b60006012905090565b6060600660003373ffffffffffffffffffffffffffffffffffffffff1673ffffffffffffffffffffffffffffffffffffffff168152602001908152602001600020805480602002602001604051908101604052809291908181526020016000905b828210156108335783829060005260206000200180546107a690611831565b80601f01602080910402602001604051908101604052809291908181526020018280546107d290611831565b801561081f5780601f106107f45761010080835404028352916020019161081f565b820191906000526020600020905b81548152906001019060200180831161080257829003601f168201915b505050505081526020019060010190610787565b50505050905090565b610844610dd0565b61084e8282610e57565b5050565b61086361085d610bac565b82610bc6565b50565b60606040518060a0016040528060808152602001611e7260809139905090565b80610890336108de565b10156108d1576040517f08c379a00000000000000000000000000000000000000000000000000000000081526004016108c89061191a565b60405180910390fd5b6108db3382610bc6565b50565b60008060008373ffffffffffffffffffffffffffffffffffffffff1673ffffffffffffffffffffffffffffffffffffffff168152602001908152602001600020549050919050565b61092e610dd0565b6109386000610ed9565b565b61094c82610946610bac565b83610c48565b6109568282610bc6565b5050565b6000600560009054906101000a900473ffffffffffffffffffffffffffffffffffffffff16905090565b60606004805461099390611831565b80601f01602080910402602001604051908101604052809291908181526020018280546109bf90611831565b8015610a0c5780601f106109e157610100808354040283529160200191610a0c565b820191906000526020600020905b8154815290600101906020018083116109ef57829003601f168201915b5050505050905090565b600080610a21610bac565b9050610a2e818585610cdc565b600191505092915050565b80610a43336108de565b1015610a84576040517f08c379a0000000000000000000000000000000000000000000000000000000008152600401610a7b9061191a565b60405180910390fd5b610a8e338261047c565b50610a9a3383836106ee565b505050565b6000600160008473ffffffffffffffffffffffffffffffffffffffff1673ffffffffffffffffffffffffffffffffffffffff16815260200190815260200160002060008373ffffffffffffffffffffffffffffffffffffffff1673ffffffffffffffffffffffffffffffffffffffff16815260200190815260200160002054905092915050565b610b2e610dd0565b600073ffffffffffffffffffffffffffffffffffffffff168173ffffffffffffffffffffffffffffffffffffffff1603610ba05760006040517f1e4fbdf7000000000000000000000000000000000000000000000000000000008152600401610b9791906117a7565b60405180910390fd5b610ba981610ed9565b50565b600033905090565b610bc18383836001610f9f565b505050565b600073ffffffffffffffffffffffffffffffffffffffff168273ffffffffffffffffffffffffffffffffffffffff1603610c385760006040517f96c6fd1e000000000000000000000000000000000000000000000000000000008152600401610c2f91906117a7565b60405180910390fd5b610c4482600083611176565b5050565b6000610c548484610a9f565b90507fffffffffffffffffffffffffffffffffffffffffffffffffffffffffffffffff8114610cd65781811015610cc6578281836040517ffb8f41b2000000000000000000000000000000000000000000000000000000008152600401610cbd93929190611e06565b60405180910390fd5b610cd584848484036000610f9f565b5b50505050565b600073ffffffffffffffffffffffffffffffffffffffff168373ffffffffffffffffffffffffffffffffffffffff1603610d4e5760006040517f96c6fd1e000000000000000000000000000000000000000000000000000000008152600401610d4591906117a7565b60405180910390fd5b600073ffffffffffffffffffffffffffffffffffffffff168273ffffffffffffffffffffffffffffffffffffffff1603610dc05760006040517fec442f05000000000000000000000000000000000000000000000000000000008152600401610db791906117a7565b60405180910390fd5b610dcb838383611176565b505050565b610dd8610bac565b73ffffffffffffffffffffffffffffffffffffffff16610df661095a565b73ffffffffffffffffffffffffffffffffffffffff1614610e5557610e19610bac565b6040517f118cdaa7000000000000000000000000000000000000000000000000000000008152600401610e4c91906117a7565b60405180910390fd5b565b600073ffffffffffffffffffffffffffffffffffffffff168273ffffffffffffffffffffffffffffffffffffffff1603610ec95760006040517fec442f05000000000000000000000000000000000000000000000000000000008152600401610ec091906117a7565b60405180910390fd5b610ed560008383611176565b5050565b6000600560009054906101000a900473ffffffffffffffffffffffffffffffffffffffff16905081600560006101000a81548173ffffffffffffffffffffffffffffffffffffffff021916908373ffffffffffffffffffffffffffffffffffffffff1602179055508173ffffffffffffffffffffffffffffffffffffffff168173ffffffffffffffffffffffffffffffffffffffff167f8be0079c531659141344cd1fd0a4f28419497f9722a3daafe3b4186f6b6457e060405160405180910390a35050565b600073ffffffffffffffffffffffffffffffffffffffff168473ffffffffffffffffffffffffffffffffffffffff16036110115760006040517fe602df0500000000000000000000000000000000000000000000000000000000815260040161100891906117a7565b60405180910390fd5b600073ffffffffffffffffffffffffffffffffffffffff168373ffffffffffffffffffffffffffffffffffffffff16036110835760006040517f94280d6200000000000000000000000000000000000000000000000000000000815260040161107a91906117a7565b60405180910390fd5b81600160008673ffffffffffffffffffffffffffffffffffffffff1673ffffffffffffffffffffffffffffffffffffffff16815260200190815260200160002060008573ffffffffffffffffffffffffffffffffffffffff1673ffffffffffffffffffffffffffffffffffffffff168152602001908152602001600020819055508015611170578273ffffffffffffffffffffffffffffffffffffffff168473ffffffffffffffffffffffffffffffffffffffff167f8c5be1e5ebec7d5bd14f71427d1e84f3dd0314c0f7b2291e5b200ac8c7c3b92584604051611167919061156b565b60405180910390a35b50505050565b600073ffffffffffffffffffffffffffffffffffffffff168373ffffffffffffffffffffffffffffffffffffffff16036111c85780600260008282546111bc9190611e3d565b9250508190555061129b565b60008060008573ffffffffffffffffffffffffffffffffffffffff1673ffffffffffffffffffffffffffffffffffffffff16815260200190815260200160002054905081811015611254578381836040517fe450d38c00000000000000000000000000000000000000000000000000000000815260040161124b93929190611e06565b60405180910390fd5b8181036000808673ffffffffffffffffffffffffffffffffffffffff1673ffffffffffffffffffffffffffffffffffffffff16815260200190815260200160002081905550505b600073ffffffffffffffffffffffffffffffffffffffff168273ffffffffffffffffffffffffffffffffffffffff16036112e45780600260008282540392505081905550611331565b806000808473ffffffffffffffffffffffffffffffffffffffff1673ffffffffffffffffffffffffffffffffffffffff168152602001908152602001600020600082825401925050819055505b8173ffffffffffffffffffffffffffffffffffffffff168373ffffffffffffffffffffffffffffffffffffffff167fddf252ad1be2c89b69c2b068fc378daa952ba7f163c4a11628f55a4df523b3ef8360405161138e919061156b565b60405180910390a3505050565b600081519050919050565b600082825260208201905092915050565b60005b838110156113d55780820151818401526020810190506113ba565b60008484015250505050565b6000601f19601f8301169050919050565b60006113fd8261139b565b61140781856113a6565b93506114178185602086016113b7565b611420816113e1565b840191505092915050565b6000602082019050818103600083015261144581846113f2565b905092915050565b600080fd5b600073ffffffffffffffffffffffffffffffffffffffff82169050919050565b600061147d82611452565b9050919050565b61148d81611472565b811461149857600080fd5b50565b6000813590506114aa81611484565b92915050565b6000819050919050565b6114c3816114b0565b81146114ce57600080fd5b50565b6000813590506114e0816114ba565b92915050565b600080604083850312156114fd576114fc61144d565b5b600061150b8582860161149b565b925050602061151c858286016114d1565b9150509250929050565b60008115159050919050565b61153b81611526565b82525050565b60006020820190506115566000830184611532565b92915050565b611565816114b0565b82525050565b6000602082019050611580600083018461155c565b92915050565b60006020828403121561159c5761159b61144d565b5b60006115aa848285016114d1565b91505092915050565b6000806000606084860312156115cc576115cb61144d565b5b60006115da8682870161149b565b93505060206115eb8682870161149b565b92505060406115fc868287016114d1565b9150509250925092565b600060ff82169050919050565b61161c81611606565b82525050565b60006020820190506116376000830184611613565b92915050565b600081519050919050565b600082825260208201905092915050565b6000819050602082019050919050565b600082825260208201905092915050565b60006116858261139b565b61168f8185611669565b935061169f8185602086016113b7565b6116a8816113e1565b840191505092915050565b60006116bf838361167a565b905092915050565b6000602082019050919050565b60006116df8261163d565b6116e98185611648565b9350836020820285016116fb85611659565b8060005b85811015611737578484038952815161171885826116b3565b9450611723836116c7565b925060208a019950506001810190506116ff565b50829750879550505050505092915050565b6000602082019050818103600083015261176381846116d4565b905092915050565b6000602082840312156117815761178061144d565b5b600061178f8482850161149b565b91505092915050565b6117a181611472565b82525050565b60006020820190506117bc6000830184611798565b92915050565b600080604083850312156117d9576117d861144d565b5b60006117e78582860161149b565b92505060206117f88582860161149b565b9150509250929050565b7f4e487b7100000000000000000000000000000000000000000000000000000000600052602260045260246000fd5b6000600282049050600182168061184957607f821691505b60208210810361185c5761185b611802565b5b50919050565b7f4d696e696d756d206f6620373520746f6b656e73207265717569726564000000600082015250565b6000611898601d836113a6565b91506118a382611862565b602082019050919050565b600060208201905081810360008301526118c78161188b565b9050919050565b7f496e73756666696369656e742062616c616e6365000000000000000000000000600082015250565b60006119046014836113a6565b915061190f826118ce565b602082019050919050565b60006020820190508181036000830152611933816118f7565b9050919050565b7f4e487b7100000000000000000000000000000000000000000000000000000000600052603260045260246000fd5b60008154905061197881611831565b9050919050565b7f4e487b7100000000000000000000000000000000000000000000000000000000600052604160045260246000fd5b60008190508160005260206000209050919050565b60008190508160005260206000209050919050565b60006020601f8301049050919050565b600082821b905092915050565b600060088302611a257fffffffffffffffffffffffffffffffffffffffffffffffffffffffffffffffff826119e8565b611a2f86836119e8565b95508019841693508086168417925050509392505050565b6000819050919050565b6000611a6c611a67611a62846114b0565b611a47565b6114b0565b9050919050565b6000819050919050565b611a8683611a51565b611a9a611a9282611a73565b8484546119f5565b825550505050565b600090565b611aaf611aa2565b611aba818484611a7d565b505050565b5b81811015611ade57611ad3600082611aa7565b600181019050611ac0565b5050565b601f821115611b2357611af4816119ae565b611afd846119d8565b81016020851015611b0c578190505b611b20611b18856119d8565b830182611abf565b50505b505050565b600082821c905092915050565b6000611b4660001984600802611b28565b1980831691505092915050565b6000611b5f8383611b35565b9150826002028217905092915050565b818103611b7d575050611c55565b611b8682611969565b67ffffffffffffffff811115611b9f57611b9e61197f565b5b611ba98254611831565b611bb4828285611ae2565b6000601f831160018114611be35760008415611bd1578287015490505b611bdb8582611b53565b865550611c4e565b601f198416611bf1876119c3565b9650611bfc866119ae565b60005b82811015611c2457848901548255600182019150600185019450602081019050611bff565b86831015611c415784890154611c3d601f891682611b35565b8355505b6001600288020188555050505b5050505050505b565b60008154611c6481611831565b611c6e81866113a6565b94506001821660008114611c895760018114611c9f57611cd2565b60ff198316865281151560200286019350611cd2565b611ca8856119ae565b60005b83811015611cca57815481890152600182019150602081019050611cab565b808801955050505b50505092915050565b60006020820190508181036000830152611cf58184611c57565b905092915050565b7f4e487b7100000000000000000000000000000000000000000000000000000000600052601160045260246000fd5b6000611d37826114b0565b91507fffffffffffffffffffffffffffffffffffffffffffffffffffffffffffffffff8203611d6957611d68611cfd565b5b600182019050919050565b7f4e6f207375697461626c65206974656d20617661696c61626c6520666f72207460008201527f686520616d6f756e74206275726e656400000000000000000000000000000000602082015250565b6000611dd06030836113a6565b9150611ddb82611d74565b604082019050919050565b60006020820190508181036000830152611dff81611dc3565b9050919050565b6000606082019050611e1b6000830186611798565b611e28602083018561155c565b611e35604083018461155c565b949350505050565b6000611e48826114b0565b9150611e53836114b0565b9250828201905080821115611e6b57611e6a611cfd565b5b9291505056fe312e2053776f7264206f6620506f776572202833303020746f6b656e73290a322e20536869656c64206f662056616c6f72202832303020746f6b656e73290a332e2048656c6d6574206f6620576973646f6d202831353020746f6b656e73290a342e20506f74696f6e206f66204865616c696e672028373520746f6b656e7329a264697066735822122012f3e0738b58c8c6b48b24df2c2d07cbec86e70acebc51de047aa1086e440efe64736f6c63430008140033",
  "linkReferences": {},
  "deployedLinkReferences": {}
}